:020000040800F2
:100000002007002055020008D5110008CD11000876
:10001000D11100084D0400088D13000800000000F5
:10002000000000000000000000000000DD110008DA
:100030005104000800000000D9110008E111000877
:100040006F0200086F0200086F0200086F020008CC
:100050006F0200086F0200086F0200086F020008BC
:100060006F0200086F0200086F0200086F020008AC
:100070006F0200086F0200086F0200086F0200089C
:100080006F0200086F0200086F0200086F0200088C
:100090006F0200086F0200086F0200086F0200087C
:1000A0006F0200086F0200086F0200086F0200086C
:1000B0006F0200086F0200086F0200086F0200085C
:1000C0006F0200086F0200086F0200086F0200084C
:1000D0006F0200086F0200086F0200086F0200083C
:1000E0006F0200086F0200086F0200086F0200082C
:1000F0006F0200086F0200086F0200086F0200081C
:100100006F0200086F0200086F0200086F0200080B
:100110006F0200086F0200086F0200086F020008FB
:100120006F0200086F0200086F0200086F020008EB
:100130006F0200086F0200086F0200086F020008DB
:100140006F0200086F0200086F0200086F020008CB
:100150006F0200086F0200086F0200086F020008BB
:100160006F0200086F0200086F0200086F020008AB
:100170006F0200086F0200086F0200080000000014
:100180006F0200086F02000800F002F800F052F859
:1001900014A696E8000CB244B344DA4501D100F04D
:1001A00049F8BAE80F000FA696E83000A5EB040561
:1001B00004EB0607AAEB0704A7F101074FEA1515A0
:1001C0004FEA3414A4F10104AC4201D300F032F838
:1001D00013F0010F18BFFB1A43F0010300F001F800
:1001E000DBE718472013000040130000103A24BF3B
:1001F00078C878C1FAD8520724BF30C830C144BF8C
:1002000004680C6070470000704700000023002461
:1002100000250026103A28BF78C1FBD8520728BF16
:1002200030C148BF0B6070471FB501F04EF91FBDCC
:1002300010B510BD00F0D0F81146FFF7F5FF01F042
:10024000A7F800F0EEF803B4FFF7F2FF03BC00F0EC
:10025000F5F800000948804709480047FEE7FEE737
:10026000FEE7FEE7FEE7FEE7FEE7FEE7FEE7FEE766
:1002700004480549054A064B7047000091120008E2
:100280008901000820010020200700202003002011
:100290002003002053EA020C00F069802DE9F04BA6
:1002A0004FF00006002B1FBFB3FA83F503FA05F4E5
:1002B00024FA05F65E4012BF1643B2FA82F502FA3E
:1002C00005F4C5F120051EBF22FA05FC44EA0C0422
:1002D000203556EA044C4FEA144418BF641C4FF012
:1002E00000084FF00009904271EB030C39D300294C
:1002F00019BFB1FA81F701FA07F6B0FA80F700FAF0
:1003000007F6C7F120071EBF20FA07FC46EA0C06D5
:100310002037B6FBF4FCA7EB0507103F07F01F0BD7
:10032000CBF120062CFA06F60CFA0BFB44BFB346C1
:100330000026202FA4BF5E464FF0000B5BEA060CA0
:1003400008BF4FF0010B19EB0B0948EB0608ABFB9C
:10035000027C06FB02CC0BFB03CCC01B71EB0C0137
:10036000C1E70B46024641464846BDE8F08B13B54F
:10037000084318BF4FF0FF300146AFF30080BDE8DF
:100380001C4070474FF0000200B513469446964655
:10039000203922BFA0E80C50A0E80C50B1F1200198
:1003A000BFF4F7AF090728BFA0E80C5048BF0CC046
:1003B0005DF804EB890028BF40F8042B08BF7047A4
:1003C00048BF20F8022B11F0804F18BF00F8012B16
:1003D0007047704770477047754600F02BF8AE467F
:1003E00005006946534620F00700854618B020B541
:1003F000FFF73EFFBDE820404FF000064FF000073A
:100400004FF000084FF0000BAC46ACE8C009ACE878
:10041000C009ACE8C009ACE8C00921F007018D466D
:10042000704710B50446AFF300802046BDE8104089
:10043000FFF709BF0048704710000020014918204D
:10044000ABBEFEE72600020070470000FEE700009A
:10045000704700002DE9F041044600F0A1FAECB12C
:100460000546022084F835000020216884F8340015
:10047000086820F00100086021680868C00711D0F2
:1004800000F08EFA401B0528F6D90325202303200F
:10049000636584F83550BDE8F08100BF0120BDE8F8
:1004A000F08100BF086848F23F02CFF21002D4E9A1
:1004B000013500EA020C04F10C0898E8C10143EA96
:1004C0000C032B431843D4E9072E30433843104321
:1004D000626A40EA0E00042A40EA08031CD1206B3D
:1004E000D4E90A2E40EA0E00184308604869BEF1BC
:1004F000000F20F0030040EA020040F0040C11D08D
:10050000B8F5005F36D0B8F1000F45D1022A46D0C9
:10051000012A3BD032B942E00B60486920F0070065
:1005200040EA020C01F0F8004AF6AB221038CAF695
:10053000AA22A0FB02231A0941F2FC43C1F814C00D
:10054000C0F600039A5C40F2FF335F284FF03F0093
:1005500021EA030100FA02F088BF0431C4E916124F
:100560008860002301250020636584F83550BDE8CC
:10057000F08100BF032AD5D8012540230120DFE800
:1005800002F0030E030500BF82E700BFAEF1C070AA
:10059000B0FA80F0400904E0032A04D3C2D1CEF3BC
:1005A00000600028BED0012540230120636584F847
:1005B0003550BDE8F08100002DE9F04F81B0904644
:1005C0000E46044600F0ECF994F83510022925D1C6
:1005D000814620680068C0052AD4D4E916A01021FD
:1005E0000096002E08BF2021DAF8002001FA00FB57
:1005F00012EA0B0F24D0616D00291CBF616D5FEA08
:10060000C17169D10099002958D0102101FA00F078
:10061000CAF80800002001B0BDE8F08F80206065B6
:10062000002084F83400012001B0BDE8F08F00BF45
:100630004FF480706065012001B0BDE8F08F00BF0D
:1006400008F101074FF0080C0126042503E000BF64
:1006500011EA0B0FCFD1616DC907CCD16FB1B8F1E1
:10066000000F65D000F09CF9A0EB090004250126DD
:100670004FF0080C40455BD8E06DDAF800100CFA3A
:1006800000F20A4205D0636D43F001036365CAF8C6
:10069000082006FA00F20A4205D0636D43F0020317
:1006A0006365CAF8082005FA00F20A42D0D0636DEB
:1006B00043F004036365CAF80820C9E7302101FA52
:1006C00000F0CAF80800012084F83500002084F802
:1006D000340001B0BDE8F08FA76D00F061F994F827
:1006E0003510022930D106462068216C026822F0BC
:1006F00016020260426922F08002426109B9A16CCF
:1007000019B1016821F008010160016821F00101BF
:10071000016000BF20680068C00719D000F040F9F0
:10072000801B0628F6D320206065032016E000BF5A
:1007300020206065012084F83500002084F8340012
:10074000032001B0BDE8F08F8020606508E000BFA5
:10075000E06D3F2101FA00F0B860012084F8350017
:10076000E06D302101FA00F0CAF8080001200021F4
:1007700084F8350084F8341001B0BDE8F08F000033
:1007800090F834C0BCF1010F31D04FF0010C80F86B
:1007900034C090F835C0BCF1010F25D110B54FF031
:1007A000020C80F835C084460020CCF85400DCF8F8
:1007B00000E0DCF808C0DEF80040BCF1400F24F493
:1007C0008024CEF80040CEF804300B4604BF134618
:1007D0000A46CEF80830CEF80C20DEF8001041F0C2
:1007E0000101CEF8001010BD002180F83410022065
:1007F000704700002DE9F04F83B000F1200200F1B6
:100800003E4741F60045009207F1FF77C4F202052A
:1008100008224FEAB726A84208BF072200254FF05A
:1008200000084FF00009072E38BF4FEAB7220192A7
:100830000AE000BF09F1010908F10208B9F1100F3F
:1008400005F1040500F0A2800F68012202FA09FEFA
:1008500017EA0E0AEED0D1F804C003220CF0030709
:100860007E1E02FA08F4012E6FEA040B12D8846887
:10087000CE6804EA0B0406FA08F634438460446840
:1008800024EA0E06CCF3001404FA09F42643466069
:1008900004E000BF032F01D103271EE0C6688C6867
:1008A00006EA0B0604FA08F42643022FC66014D1A8
:1008B0006FF00302009E02EA590756F807C005F0E0
:1008C0001C040F220B69A2402CEA0202A3401A4327
:1008D000F251D1F804C00CF00307026807FA08F3DC
:1008E00002EA0B021A431CF4403F0260A2D000222D
:1008F00043F644030292C4F202031A6843F600442A
:1009000042F480421A601A68C4F2010402F4804280
:100910000292029A29F003024FF6084C2244CFF6C5
:10092000FF7C52F80C3005F00C070F26BE40B34395
:10093000019E06FA07F73B4342F80C30A2684B6869
:1009400042EA0A0743F60C4CDE0258BF22EA0A07C5
:10095000A760C4F2010CDCF800209E0242EA0A07FC
:1009600058BF22EA0A07CCF8007062689E0342EA88
:100970000A0758BF22EA0A0767602268DB0342EAD7
:100980000A0758BF22EA0A07276053E703B0BDE809
:10099000F08F0000002A08BF090481617047000041
:1009A00040F21810C2F200000068704740F20000E8
:1009B00040F21811C2F20000C2F2000100780A6889
:1009C000104408607047000080B543F60040C4F250
:1009D0000200016841F400710160016841F4806126
:1009E0000160016841F480710160032000F076F835
:1009F000002000F005F800F027F8002080BD00007E
:100A000070B540F20006C2F2000640F208013278EA
:100A1000C2F200014FF47A730968B3FBF2F20446A4
:100A2000B1FBF2F1084600F04FFB0F2C4FF001052F
:100A300008D838B94FF0FF3021460022002500F0D9
:100A400021F87460284670BD82B0002043F6400152
:100A50000190C4F202014A6842F480424A604A6846
:100A600002F480420192019A0090086840F08050A0
:100A70000860086800F0805000900098072002B0DD
:100A800000F02CB810B54EF60C5CCEF2000CDCF881
:100A90000030C3F3022E8EF00704042C28BF042478
:100AA000BEF103034FF0FF3E0EFA04F438BF0023FB
:100AB000A14399400EFA03F39A43114300F00F0249
:100AC00000F160430901043A03F5644362440028DD
:100AD00048BF02F10C03197010BD00004EF60C5116
:100AE000CEF200010A684FF6FF031A4060F30A22B3
:100AF00042F0806040F0FD7008607047002804BF3D
:100B0000012070472DE9F04143F60808C4F20208BD
:100B10000446D8F8F8030D4600F00700884207D2D3
:100B200088F8F853D8F8F80300F00700A84277D106
:100B30002068810717D5410705D5D8F8001041F482
:100B4000E051C8F80010010705D5D8F8001041F4AD
:100B50006041C8F80010D8F80010A26821F0F00138
:100B60001143C8F80010C00740D1D8F8F80300F0CE
:100B70000700A84207D988F8F853D8F8F80300F01E
:100B80000700A8424CD12068410707D5D8F80010CB
:100B9000E26821F4E0511143C8F80010000708D5BD
:100BA000D8F80000216920F4604040EAC100C8F88C
:100BB000000000F07DF8D8F8001041F2E442C1F3E3
:100BC0000311C0F60002515C40F2080220FA01F164
:100BD00040F20400C2F200000068C2F2000211609C
:100BE000FFF70EFF0020BDE8F08100BF6068811EA6
:100BF000022907D258F8081C89015CBF0120BDE812
:100C0000F08111E0012807D158F8081C89035CBF66
:100C10000120BDE8F08107E058F8081C890703D4DB
:100C20000120BDE8F08100BFD8F8001021F00301D9
:100C30000843C8F80000FFF7B3FE064641F28837C4
:100C4000D8F80000616800F00C00B0EB810F8CD088
:100C5000FFF7A6FE801BB842F2D90320BDE8F08161
:100C600040F2080043F60801C2F20000C4F202019B
:100C70000068096841F2F442C1F38221C0F6000223
:100C8000515CC8407047000040F2080043F608017C
:100C9000C2F20000C4F202010068096841F2F442A5
:100CA000C1F34231C0F60002515CC84070470000F9
:100CB00010B543F60404C4F20204606800F00C01AD
:100CC00042F200400829C0F2F40007D0042918BFFE
:100CD00010BD41F20020C0F27A0010BD216801F081
:100CE0003F02216823684902C3F3881106D4A1FB9F
:100CF00000010023FFF7CEFA07E000BF41F2002019
:100D0000C0F27A004843B0FBF2F021680222C1F33E
:100D1000014102EB4101B0FBF1F010BD002804BF1E
:100D2000012070472DE9F04182B00446007843F677
:100D30000006C007C4F202060CD0B06800F00C0038
:100D4000042840F081803068800303D56068002863
:100D500000F06881207880071BD5B06810F00C0F78
:100D600009D0B06800F00C00082840F08780706857
:100D7000400200F183803068800703D5E0680128D5
:100D800040F050813068216920F0F80040EAC1004D
:100D900030602078000713D4207840072AD4A56952
:100DA000002D00F03A81B06800F00C00082840F0F7
:100DB000A580012D40F00E81012002B0BDE8F08138
:100DC0006069002800F082800020C4F247200121E1
:100DD000C0F8801EFFF7E4FD054600BF706F800776
:100DE000DAD4FFF7DDFD401B0228F7D9032002B05B
:100DF000BDE8F081306C5FEAC0080AD400200190A1
:100E0000306C40F080503064306C00F080500190C5
:100E1000019847F20007C4F200073868C00547D4BC
:100E2000386840F480703860FFF7BAFD054600BFAF
:100E30003868C0053CD4FFF7B3FD401B0228F7D942
:100E4000032002B0BDE8F081B06800F00C00082873
:100E500003D1706840023FF576AF61683068B1F544
:100E6000803F07D0B1F5A02F40F09A8040F4802059
:100E70003060306840F4803030609AE0E0680028EC
:100E800040F20000C4F247205CD001210160FFF76E
:100E900087FD0546306880073FF574AFFFF780FD9A
:100EA000401B0228F6D9032002B0BDE8F08100BF44
:100EB000A168306F012905D0052955D140F0040003
:100EC0003067306F40F00100306756E00020C4F218
:100ED00047200021C0F8801EFFF762FD054600BFD5
:100EE000706F80077FF558AFFFF75AFD401B02284F
:100EF000F6D9032002B0BDE8F08100BF0027C4F29C
:100F0000472700203866FFF74BFD022D05460DD11F
:100F10003068800140F18A80FFF742FD401B0228C3
:100F20004FF00300F4D902B0BDE8F08130688001D1
:100F300073D5FFF735FD401B02284FF00300F5D9AC
:100F4000F1E700BF00210160FFF72AFD054600BF61
:100F5000306880077FF51DAFFFF722FD401B022898
:100F60004FF00300F4D9DEE720F001003067306F66
:100F7000002920F0040030677AD0FFF711FD054604
:100F800041F28837306F800700F18480FFF708FD59
:100F9000401BB842F6D9032002B0BDE8F08100BF83
:100FA00020F4803030603068002920F480203060E8
:100FB0007AD0FFF7F5FC0546306880033FF5CAAEEE
:100FC000FFF7EEFC401B6428F6D9032002B0BDE811
:100FD000F08100BF7068E16900F480028A4221D18B
:100FE000216A00F03F028A421CD147F6C071626A52
:100FF0000140B1EB821F15D1A16A4FF6FF73C903FF
:10100000994300F44032A1F580318A420AD1E16A65
:1010100000F07060B0EB016F04D1002002B0BDE8B9
:10102000F08100BF012002B0BDE8F08104F11C0591
:101030002FCD084340EA8210D9034FF6FF72914347
:10104000A1F5803140EA05600843706001203866F0
:10105000FFF7A6FC044600BF30688001DDD4FFF72F
:101060009FFC001B02284FF00300F5D95BE700BF8F
:10107000FFF796FC054641F2883700BF306F8007C6
:1010800008D5FFF78DFC401BB8424FF00300F5D99F
:1010900049E700BFB8F1000F3FF581AE306C20F09A
:1010A000805030647BE600BFFFF77AFC054600BF46
:1010B000306880037FF54EAEFFF772FC401B64285A
:1010C0004FF00300F4D92EE7411E0020B0EB116F62
:1010D0001CBF012070474EF21002CEF20002516098
:1010E0004EF62351CEF20001F0230B7007219060E1
:1010F00011607047002804BF0120704710B50446F6
:1011000090F8410028B9002084F84000204600F003
:1011100021F8242084F841002068C16821F400519E
:10112000C160204600F0BEF82068016921F49041BA
:101130000161416921F02A014161C16841F4005116
:10114000C16000202021606484F8411084F84210BE
:10115000606310BD80B586B041F200010068C4F242
:101160000101002288420592CDE9032202920192F8
:1011700002D006B080BD00BF43F630000092C4F23A
:101180000200436943F010034361436903F0100315
:101190000093009B0092036843F001030360006822
:1011A00000F00100009000984FF4C0600190022010
:1011B000CDE90202032004900720059001F570405C
:1011C00001A9FFF717FB06B080BD0000FEE7000095
:1011D000FEE70000FEE700007047000070470000D7
:1011E000FFF7E4BB70B592B006AC20463021FFF7A4
:1011F000C9F8002543F640000595CDE90355CDE932
:1012000001550095C4F202000168022641F08051A8
:101210000160006800F080500090009847F20000E4
:101220000095C4F20000016841F48041016000684B
:1012300000F4804000900098012006904FF4803028
:1012400007904FF480000D9008200E904FF4A87086
:10125000CDE90F060720119020460C96FFF75EFDA2
:1012600010B172B6FEE700BF0F20CDE901064FF4C2
:10127000A05004904FF48050059001A805210395DB
:10128000FFF73CFC10B172B6FEE700BF12B070BDB4
:101290004EF68850CEF20000016841F47001016002
:1012A00070470000B0B50446006804F108030ECB97
:1012B0000569194325F440552A4302616269E369CF
:1012C0001143C268194349F20C639A431143C16048
:1012D0004169A26921F4407141F20043114340F495
:1012E0008062C4F201039A42416103D1FFF7CCFC52
:1012F00002E000BFFFF7B4FCE1694FF69C7563683C
:101300001922C0F6FF75B1F5004FA0FB02011FD1F5
:101310005A00DB0FFEF7BEFF48F21F51C5F2EB117A
:10132000A0FB01235A0905F1805302FB030032237D
:1013300003EBC000A0FB01014FF4F87000EA1110AC
:1013400000EB0210C1F34211084421688860B0BD6F
:101350009A009B0FFEF79EFF48F21F51C5F2EB115A
:10136000A0FB01235A0902FB0500322303EB001006
:10137000A0FB0101F02000EA511000EB0210C1F3C4
:101380004311084421688860B0BD0000FEE70000FA
:1013900086B040F60044C4F20204FFF715FBFFF7E5
:1013A00021FF002543F630060595CDE90355CDE92B
:1013B00001550095C4F2020630684FF4004140F038
:1013C000800030603068002200F0800000900098BB
:1013D000009530684FF4004740F0080030603068F6
:1013E00000F00800009000980095306840F001007F
:1013F0003060306800F00100009000982046FFF750
:10140000C9FA0120CDE9020501A9204601970495FA
:10141000FFF7F0F90195306846F2104140F4800082
:1014200030603068C4F2020100F48000019001983D
:1014300040F27000C2F200008022C0E9001500F105
:1014400008014FF400734FF480678CC1042103221C
:10145000C0E90555C561C0E90851C0E90A25056321
:10146000FEF7F8FF10B172B6FEE700BF40F2D00001
:10147000A4F57C41C2F200000C234FF4E13280E875
:101480002600C0E90355C0E90535C561FFF732FE06
:1014900010B172B6FEE700BF40F20C0640F27004D5
:1014A00040F61445C2F20006C2F20004C4F202057E
:1014B000317820462A460123FFF762F920460021B1
:1014C0004FF0FF32FFF778F8F2E7F1EE100A4FF62F
:1014D000FF71C0F2C03120EA010040F04070E1EE3F
:1014E000100A704700000000000000000102030421
:1014F0000607080900000000010203040006101698
:10150000000610162815000800000020100000003A
:10151000EC0100083815000810000020100700003A
:101520000C02000800000000010000001000000094
:081530000024F40000FF00009C
:040000050800018965
:00000001FF
